{
  "contractName": "ToDo",
  "abi": [
    {
      "inputs": [
        {
          "internalType": "string",
          "name": "_content",
          "type": "string"
        },
        {
          "internalType": "string",
          "name": "_author",
          "type": "string"
        }
      ],
      "name": "createTask",
      "outputs": [],
      "stateMutability": "nonpayable",
      "type": "function"
    },
    {
      "inputs": [
        {
          "internalType": "uint256",
          "name": "id",
          "type": "uint256"
        }
      ],
      "name": "getTask",
      "outputs": [
        {
          "internalType": "uint256",
          "name": "",
          "type": "uint256"
        },
        {
          "internalType": "uint256",
          "name": "",
          "type": "uint256"
        },
        {
          "internalType": "string",
          "name": "",
          "type": "string"
        },
        {
          "internalType": "string",
          "name": "",
          "type": "string"
        },
        {
          "internalType": "bool",
          "name": "",
          "type": "bool"
        }
      ],
      "stateMutability": "view",
      "type": "function",
      "constant": true
    }
  ],
  "bytecode": "0x608060405234801561001057600080fd5b506107e1806100206000396000f3fe608060405234801561001057600080fd5b50600436106100365760003560e01c80631d65e77e1461003b578063292a45851461006f575b600080fd5b6100556004803603810190610050919061041d565b61008b565b60405161006695949392919061050d565b60405180910390f35b610089600480360381019061008491906106a3565b610262565b005b600080606080600085600087815481106100a8576100a761071b565b5b906000526020600020906005020160010154600088815481106100ce576100cd61071b565b5b9060005260206000209060050201600201600089815481106100f3576100f261071b565b5b906000526020600020906005020160030160008a815481106101185761011761071b565b5b906000526020600020906005020160040160009054906101000a900460ff1682805461014390610779565b80601f016020809104026020016040519081016040528092919081815260200182805461016f90610779565b80156101bc5780601f10610191576101008083540402835291602001916101bc565b820191906000526020600020905b81548152906001019060200180831161019f57829003601f168201915b505050505092508180546101cf90610779565b80601f01602080910402602001604051908101604052809291908181526020018280546101fb90610779565b80156102485780601f1061021d57610100808354040283529160200191610248565b820191906000526020600020905b81548152906001019060200180831161022b57829003601f168201915b505050505091509450945094509450945091939590929450565b60006040518060a001604052806000805490508152602001428152602001848152602001838152602001600015158152509080600181540180825580915050600190039060005260206000209060050201600090919091909150600082015181600001556020820151816001015560408201518160020190805190602001906102ec929190610330565b506060820151816003019080519060200190610309929190610330565b5060808201518160040160006101000a81548160ff02191690831515021790555050505050565b82805461033c90610779565b90600052602060002090601f01602090048101928261035e57600085556103a5565b82601f1061037757805160ff19168380011785556103a5565b828001600101855582156103a5579182015b828111156103a4578251825591602001919060010190610389565b5b5090506103b291906103b6565b5090565b5b808211156103cf5760008160009055506001016103b7565b5090565b6000604051905090565b600080fd5b600080fd5b6000819050919050565b6103fa816103e7565b811461040557600080fd5b50565b600081359050610417816103f1565b92915050565b600060208284031215610433576104326103dd565b5b600061044184828501610408565b91505092915050565b610453816103e7565b82525050565b600081519050919050565b600082825260208201905092915050565b60005b83811015610493578082015181840152602081019050610478565b838111156104a2576000848401525b50505050565b6000601f19601f8301169050919050565b60006104c482610459565b6104ce8185610464565b93506104de818560208601610475565b6104e7816104a8565b840191505092915050565b60008115159050919050565b610507816104f2565b82525050565b600060a082019050610522600083018861044a565b61052f602083018761044a565b818103604083015261054181866104b9565b9050818103606083015261055581856104b9565b905061056460808301846104fe565b9695505050505050565b600080fd5b600080fd5b7f4e487b7100000000000000000000000000000000000000000000000000000000600052604160045260246000fd5b6105b0826104a8565b810181811067ffffffffffffffff821117156105cf576105ce610578565b5b80604052505050565b60006105e26103d3565b90506105ee82826105a7565b919050565b600067ffffffffffffffff82111561060e5761060d610578565b5b610617826104a8565b9050602081019050919050565b82818337600083830152505050565b6000610646610641846105f3565b6105d8565b90508281526020810184848401111561066257610661610573565b5b61066d848285610624565b509392505050565b600082601f83011261068a5761068961056e565b5b813561069a848260208601610633565b91505092915050565b600080604083850312156106ba576106b96103dd565b5b600083013567ffffffffffffffff8111156106d8576106d76103e2565b5b6106e485828601610675565b925050602083013567ffffffffffffffff811115610705576107046103e2565b5b61071185828601610675565b9150509250929050565b7f4e487b7100000000000000000000000000000000000000000000000000000000600052603260045260246000fd5b7f4e487b7100000000000000000000000000000000000000000000000000000000600052602260045260246000fd5b6000600282049050600182168061079157607f821691505b602082108114156107a5576107a461074a565b5b5091905056fea2646970667358221220713bcaf78eafd51bf2b9622ff0a64634e4e9a5656d06d8b37e2c58e02f47d8c864736f6c634300080b0033",
  "immutableReferences": {},
  "source": "// SPDX-License-Identifier: MIT\npragma solidity >=0.4.22 <0.9.0;\n\ncontract ToDo {\n  struct Task{\n    uint id;\n    uint date;\n    string content;\n    string author;\n    bool done;\n  }\n\n\n  Task[] tasks;\n\n  function createTask(string memory _content , string memory _author) public{\n    tasks.push(Task(tasks.length, block.timestamp, _content, _author, false));\n\n  }\n\n\n  function getTask(uint id) public view returns(uint,uint,string memory,string memory,bool) {\n    return(id  ,tasks[id].date  ,tasks[id].content  ,tasks[id].author,  tasks[id].done );\n  }\n\n  // function getTasks() public constant returns(Task[]){\n  //   return tasks;\n  // }\n}\n",
  "sourcePath": "C:\\Users\\jhanw\\Desktop\\Dapps\\To-Do-List\\contracts\\ToDo.sol",
  "compiler": {
    "name": "solc",
    "version": "0.8.11+commit.d7f03943.Emscripten.clang"
  },
  "schemaVersion": "3.4.4",
  "updatedAt": "2022-02-14T13:57:30.018Z",
  "networkType": "ethereum",
  "devdoc": {
    "kind": "dev",
    "methods": {},
    "version": 1
  },
  "userdoc": {
    "kind": "user",
    "methods": {},
    "version": 1
  }
}